:020000040800F2
:10000000681100200D2D00089103000893030008DB
:10001000970300089B0300089F03000800000000EE
:10002000000000000000000000000000A303000822
:10003000A503000800000000A7030008A9030008AA
:10004000272D0008272D0008272D0008272D000840
:10005000272D0008272D0008272D0008272D000830
:10006000272D0008272D0008272D0008272D000820
:10007000272D0008272D0008272D0008272D000810
:10008000551B0008272D0008272D0008272D0008E4
:10009000AF170008272D0008272D0008272D00087E
:1000A000272D0008272D0008272D0008272D0008E0
:1000B000272D0008272D0008272D0008272D0008D0
:1000C000272D0008272D0008272D0008272D0008C0
:1000D000272D0008272D0008272D0008272D0008B0
:1000E000272D0008272D0008272D0008272D0008A0
:1000F000272D0008272D0008272D0008272D000890
:10010000272D0008272D0008272D0008272D00087F
:10011000272D0008272D0008272D0008272D00086F
:10012000272D0008272D0008272D0008272D00085F
:10013000272D0008272D0008272D0008371A000852
:10014000131A0008272D0008272D0008272D000866
:10015000272D0008272D0008272D0008272D00082F
:10016000272D0008272D0008272D0008272D00081F
:10017000272D0008272D0008272D0008272D00080F
:10018000272D0008272D000800F002F800F064F881
:100190000AA090E8000C82448344AAF10107DA45E2
:1001A00001D100F059F8AFF2090EBAE80F0013F0D0
:1001B000010F18BFFB1A43F0010318478CA300007E
:1001C000ACA300000A444FF0000C10F8013B13F000
:1001D000070408BF10F8014B1D1108BF10F8015BA0
:1001E000641E05D010F8016B641E01F8016BF9D193
:1001F00013F0080F1EBF10F8014BAD1C0C1B09D1EA
:100200006D1E58BF01F801CBFAD505E014F8016B5B
:1002100001F8016B6D1EF9D59142D6D370470000ED
:100220000023002400250026103A28BF78C1FBD8FF
:10023000520728BF30C148BF0B607047642907F0E0
:100240009D83782907F0D683002070471FB509F0F9
:1002500010F91FBD10B510BD07F028FE1146FFF7BD
:10026000F5FF00F009F807F046FE03B4FFF7F2FFD0
:1002700003BC03F03FFD000000F04BF9314800F0F3
:1002800023FB07F0F3FA01F0EAF800F0FBF82E493F
:10029000086055E000F07DF92C4890ED000A2C48EC
:1002A00080ED000A294890ED090A2A4880ED000AED
:1002B000294890ED000A294880ED000A284890ED71
:1002C000000A284880ED000A204890ED050A2648DB
:1002D00080ED000A1D4890ED0E0A244880ED000ACA
:1002E000184890ED3A0A224880ED000A154890ED32
:1002F0003B0A204880ED000A124890ED3C0A1E4857
:1003000080ED000A0F4890ED350A1C4880ED000A88
:100310000C4890ED340A1A4880ED000A094890ED27
:10032000330A184880ED000A064890ED3D0A164849
:1003300080ED000A034890ED380A144880ED000A69
:10034000A8E70000A0040020000000200009002011
:100350000400002008000020540400200C000020AD
:100360005C04002010000020140000201800002071
:100370001C00002020000020240000202800002075
:100380002C00002030000020380000203C0000201D
:10039000704700BFFEE700BFFEE700BFFEE700BFFB
:1003A000FEE770477047704702480068401C0149EB
:1003B000086070474000002030B50146481EB0F18B
:1003C000807F01D3012030BD481E4FF0E0225061F4
:1003D00050170F22002807DA13071D0E984B00F064
:1003E0000F04241F1D5503E013071C0E954B1C54CE
:1003F00000BF00204FF0E022906107201061002034
:10040000E1E7F0EE401AF4EEE01AF1EE10FA02D253
:10041000B0EE600A7047F4EEC11AF1EE10FA02DD98
:10042000B0EE410AF6E7B0EE610AF3E703468B420D
:1004300001DA08467047934201DD1046FAE7184694
:10044000F8E703468B4201DA08467047934201DD24
:100450001046FAE71846F8E703468B4201DA0846E9
:100460007047934201DD1046FAE71846F8E71FB5DA
:10047000684602F010F874490098B0FBF1F0734937
:1004800008601FBD00BF724801684FF0E02082691C
:100490006F4800688142F6D16C48006800EB400369
:1004A000C3EBC010C2EBC000684B1B68B0FBF3F09D
:1004B00001EB4103C3EBC11300EBC300704730B540
:1004C0000446FFF7DFFF054600BFFFF7DBFF401BD9
:1004D000A042FAD330BD10B5044603E04FF47A7061
:1004E000FFF7EDFF201EA4F10104F7D110BD58481D
:1004F0000068704710B5FFF7BAFF564800684FF420
:100500007A71B0FBF1F42046FFF756FF10BD70473B
:10051000704710B501F06CFCFFF7A9FF4D4800686B
:100520004FF47A71B0FBF1F42046FFF745FFFFF777
:10053000EFFF00F0A3FF01F0E3F901F08BFA01F007
:100540002BFC03F09EFD1FE0FFF79CFF4249086073
:100550000846006841490968401A4149884213DB4E
:100560003D48006808443D4908603E480068401C1A
:100570003C49086008460068032805DB00203A492A
:1005800008700A203749086005F0B9FE0028DBD161
:1005900010BD10B5FFF776FF3449086008460068C3
:1005A00033490968401A0FD43048006800F57A7062
:1005B0002F4908602F4A3049304803F010FE304A76
:1005C0003049314805F0EEFE284800682F49096897
:1005D000401A0FD42548006800F5FA602B490860DE
:1005E0002B480068012805D100F0EEFD06F0B0FEB2
:1005F00006F000FF1D48006826490968401A0BD420
:100600001A48006800F57A602249086020480068AE
:10061000012801D106F0FDFF144800681E49096851
:10062000401A0CD41148006843F2B06108441A49DA
:10063000086017480068012801D107F057F810BD7D
:1006400018ED00E000E400E040420F00440000200C
:1006500040000020F0030020480000207800002027
:10066000A086010070000020740000207C000020A3
:10067000800000205A000020580000205600002072
:10068000640000205C000020600000208400002046
:100690006C0000208C00002088000020B0EE401A82
:1006A00080ED031AC0ED040A90ED030A90ED042AD0
:1006B00030EE420A80ED050A90ED050AB5EEC00A5B
:1006C000F1EE10FA02DD90ED050A03E090ED050A67
:1006D000B1EE400A90ED062AB4EEC20AF1EE10FA2D
:1006E00003D89FEDFE0A80ED050A90ED080A90ED13
:1006F000052A30EE020A80ED080A90ED050A90ED19
:10070000072A70EE421A90ED080A90ED092AB4EE1D
:10071000C20AF1EE10FA03DB90ED090A80ED080A37
:1007200090ED080A90ED092AB1EE422AB4EEC20A11
:10073000F1EE10FA05D890ED090AB1EE400A80ED0D
:10074000080A90ED050A90ED002A20EE020A80EDDD
:100750000A0A90ED080A90ED012A20EE020A80EDC7
:100760000B0A90ED020A20EE210A80ED0C0A90EDB2
:10077000050A80ED070A90ED0A0A90ED0B2A30EE8B
:10078000020A90ED0C2A30EE020A80ED0D0A90ED7F
:100790000D0A90ED0E2AB4EEC20AF1EE10FA03DB58
:1007A00090ED0E0A80ED0D0A90ED0D0A90ED0E2AE7
:1007B000B1EE422AB4EEC20AF1EE10FA05D890ED7D
:1007C0000E0AB1EE400A80ED0D0A90ED0D0A704759
:1007D000F0EE400AC0ED050A90ED050AB5EEC00A3C
:1007E000F1EE10FA02DD90ED050A03E090ED050A46
:1007F000B1EE400A90ED061AB4EEC10AF1EE10FA1D
:1008000003D89FEDB60A80ED050A90ED080A90ED39
:10081000051A30EE010A80ED080A90ED080A90ED05
:10082000091AB4EEC10AF1EE10FA03DB90ED090AE1
:1008300080ED080A90ED080A90ED091AB1EE411A10
:10084000B4EEC10AF1EE10FA05D890ED090AB1EE46
:10085000400A80ED080A90ED050A90ED001A20EE9E
:10086000010A80ED0A0A90ED080A90ED011A20EEC7
:10087000010A80ED0B0A90ED0A0A90ED0B1A30EE9A
:10088000010A80ED0D0A90ED0D0A90ED0E1AB4EEFE
:10089000C10AF1EE10FA03DB90ED0E0A80ED0D0AAD
:1008A00090ED0D0A90ED0E1AB1EE411AB4EEC10AA8
:1008B000F1EE10FA05D890ED0E0AB1EE400A80ED87
:1008C0000D0A90ED0D0A70470146002000BF73E04D
:1008D0009FED820A01EB801282ED040A9FED7F0AF0
:1008E00001EB801282ED050A9FED7C0A01EB80127C
:1008F00082ED070A9FED790A01EB801282ED080A6A
:100900009FED760A01EB801282ED0D0A9FED730ACE
:1009100001EB801282ED030A9FED700A01EB801259
:1009200082ED0C0A9FED6D0A01EB801282ED0B0A3D
:100930009FED6A0A01EB801282ED0A0A9FED670AB9
:1009400001EB801282ED0F0A654A02EB800292ED04
:10095000000A01EB801282ED000A624A02EB80027B
:1009600092ED000A01EB801282ED010A5E4A02EB71
:10097000800292ED000A01EB801282ED020A5B4ACE
:1009800002EB800292ED000A01EB801282ED090A6F
:10099000574A02EB800292ED000A01EB801282EDD1
:1009A0000E0A544A02EB800292ED000A01EB80121B
:1009B00082ED060A421CD0B20A2889DB7047B0EEED
:1009C000401A00EB811282ED031A00EB8112C2ED96
:1009D000040A00EB811292ED030A00EB811292ED02
:1009E000042A30EE420A00EB811282ED050A00EB88
:1009F000811292ED050AB5EEC00AF1EE10FA04DD9F
:100A000000EB811292ED050A05E000EB811292EDF8
:100A1000050AB1EE400A00EB811292ED062AB4EE0F
:100A2000C20AF1EE10FA05D89FED2C0A00EB8112F4
:100A300082ED050A00EB811292ED080A00EB8112AB
:100A400092ED052A30EE020A00EB811282ED080ACF
:100A500000EB811292ED050A00EB811292ED072A5C
:100A600070EE421A00EB811292ED080A00EB81123F
:100A700092ED092AB4EEC20AF1EE10FA07DB00EBA0
:100A8000811292ED090A00EB811282ED080A00EB57
:100A9000811292ED080A00EB811292ED092AB1EE63
:100AA000422AB4EEC20AF1EE10FA09D800EB811224
:100AB00092ED090AB1EE400A00EB811282ED080ABC
:100AC00000EB811292ED050A00EB811292ED002AF3
:100AD00020EE020A00EB81120EE000000000000090
:100AE00090000020B8000020E00000200801002055
:100AF000300100202007002082ED0A0A00EB81125D
:100B000092ED080A00EB811292ED012A20EE020A12
:100B100000EB811282ED0B0A00EB811292ED020ACA
:100B200020EE210A00EB811282ED0C0A00EB81120B
:100B300092ED050A00EB811282ED070A00EB8112AB
:100B400092ED0A0A00EB811292ED0B2A30EE020AB6
:100B500000EB811292ED0C2A30EE020A00EB8112BA
:100B600082ED0D0A00EB811292ED0D0A00EB81126D
:100B700092ED0E2AB4EEC20AF1EE10FA07DB00EB9A
:100B8000811292ED0E0A00EB811282ED0D0A00EB4C
:100B9000811292ED0D0A00EB811292ED0E2AB1EE58
:100BA000422AB4EEC20AF1EE10FA09D800EB811223
:100BB00092ED0E0AB1EE400A00EB811282ED0D0AB1
:100BC00000EB811292ED0D0A704770B52DED048B8C
:100BD00005460C46B0EE408AF0EE608A05EB8410C4
:100BE00080ED038A05EB8410C0ED048A05EB8410C8
:100BF00090ED030A05EB8410D0ED040A30EE600A94
:100C000005EB841080ED050A05EB841090ED050AD4
:100C1000B5EEC00AF1EE10FA04DD05EB841090ED9C
:100C2000050A05E005EB841090ED050AB1EE400AD7
:100C300005EB8410D0ED060AB4EEE00AF1EE10FAEE
:100C400005D81FED5A0A05EB841080ED050A05EB67
:100C5000841090ED080A05EB8410D0ED050A30EE03
:100C6000200A05EB841080ED080A05EB841090ED56
:100C7000050A05EB8410D0ED070A30EE609A05EB0B
:100C8000841090ED080A05EB8410D0ED090AB4EE4B
:100C9000E00AF1EE10FA07DB05EB841090ED090A8B
:100CA00005EB841080ED080A05EB841090ED080A2E
:100CB00005EB8410D0ED090AF1EE600AB4EEE00A0B
:100CC000F1EE10FA09D805EB841090ED090AB1EEA7
:100CD000400A05EB841080ED080A05EB841090EDC6
:100CE000050A05EB8410D0ED000A20EE200A05EB82
:100CF000841080ED0A0A05EB8411D1ED0A0AB0EEEA
:100D0000600A04EB440101EBC401FE4A02EB8100DE
:100D100000F062FB05EB841080ED0A0A05EB8410FD
:100D200090ED080A05EB8410D0ED010A20EE200AB0
:100D300005EB841080ED0B0A05EB841090ED020AA0
:100D400020EE090A05EB841080ED0C0A05EB8410F7
:100D500090ED050A05EB841080ED070A05EB841081
:100D600090ED0A0A05EB8410D0ED0B0A30EE200A54
:100D700005EB8410D0ED0C0A30EE200A05EB841050
:100D800080ED0D0A05EB841090ED0D0A05EB841043
:100D9000D0ED0E0AB4EEE00AF1EE10FA07DB05EB37
:100DA000841090ED0E0A05EB841080ED0D0A05EB22
:100DB000841090ED0D0A05EB8410D0ED0E0AF1EED3
:100DC000600AB4EEE00AF1EE10FA09D805EB8410DF
:100DD00090ED0E0AB1EE400A05EB841080ED0D0A8D
:100DE00005EB841090ED0D0ABDEC048B70BDB0EEE8
:100DF000401A31EE600A5FEDC71A30EE610A00EB6F
:100E0000811282ED030A00EB811292ED070ADFEDF9
:100E1000BE1A20EE210A00EB8112D2ED031A9FEDDB
:100E2000BB2A02EE210A00EB811282ED050A00EBDB
:100E3000811292ED080A00EB8112D2ED051A30EE14
:100E4000210A00EB811282ED080A00EB811292ED7B
:100E5000080A00EB8112D2ED091AB4EEE10AF1EEB4
:100E600010FA04DD00EB811292ED090A19E000EBA3
:100E7000811292ED080A00EB8112D2ED091AF1EE0F
:100E8000611AB4EEE10AF1EE10FA06D200EB81121B
:100E900092ED090AB1EE400A03E000EB811292EDF7
:100EA000080A00EB811282ED080A00EB811292ED34
:100EB000000ADFED971A80EE212A00EB811282ED05
:100EC000012A00EB811292ED050A00EB8112D2EDAE
:100ED000001A20EE210A00EB811282ED0A0A00EBD3
:100EE000811292ED080A00EB8112D2ED011A20EE78
:100EF000210A00EB811282ED0B0A00EB811292EDC8
:100F00000A0A00EB8112D2ED0B1A30EE210A00EB37
:100F1000811282ED0D0A00EB811292ED050A00EBC1
:100F2000811282ED070A00EB811292ED0D0A00EBAF
:100F30008112D2ED0E1AB4EEE10AF1EE10FA04DDE0
:100F400000EB811292ED0E0A19E000EB811292ED96
:100F50000D0A00EB8112D2ED0E1AF1EE611AB4EE19
:100F6000E10AF1EE10FA06D200EB811292ED0E0AC0
:100F7000B1EE400A03E000EB811292ED0D0A00EBA6
:100F8000811282ED0D0A00EB811292ED0D0A70477D
:100F900070B52DED048B05460C46B0EE408AF0EEA0
:100FA000608AB0EE419AF0EE619A05EB841080ED14
:100FB000038A05EB8410C0ED048A05EB841090EDE4
:100FC000030A05EB8410D0ED040A30EE600A05EB4D
:100FD000841080ED050A05EB841090ED050AB5EE4E
:100FE000C00AF1EE10FA04DD05EB841090ED050A5D
:100FF00005E005EB841090ED050AB1EE400A05EB23
:101000008410D0ED060AB4EEE00AF1EE10FA05D82D
:101010009FED400A05EB841080ED050A05EB841076
:1010200090ED080A05EB8410D0ED050A30EE200A99
:1010300005EB841080ED080A05EB841090ED080A9A
:1010400005EB8410D0ED090AB4EEE00AF1EE10FAD7
:1010500007DB05EB841090ED090A05EB841080EDA9
:10106000080A05EB841090ED080A05EB8410D0ED1A
:10107000090AF1EE600AB4EEE00AF1EE10FA09D8BE
:1010800005EB841090ED090AB1EE400A05EB8410DF
:1010900080ED080A05EB841090ED080A05EB84103A
:1010A000D0ED010A20EE200A05EB841080ED0B0A3A
:1010B00039EE290A05EB841080ED0F0A05EB841147
:1010C000D1ED0F0AB0EE600A04EB440101EBC4015C
:1010D0000C4A02EB810000F07FF905EB841080EDF3
:1010E0000F0A05EB841090ED050A05EB8410D0ED96
:1010F000000A20EE200A05EB841080ED0A0A05EBB9
:10110000841009E0480700203333333F9A99993E11
:10111000000048430000000090ED0F0A05EB84102A
:10112000D0ED020A20EE200A05EB841080ED0C0AB7
:1011300005EB841090ED0A0A05EB8410D0ED0C0A43
:1011400030EE200A05EB8410D0ED0B0A30EE200AB9
:1011500005EB841080ED0D0A05EB841090ED0D0A6F
:1011600005EB8410D0ED0E0AB4EEE00AF1EE10FAB1
:1011700004DD05EB841090ED0E0A19E005EB8410F8
:1011800090ED0D0A05EB8410D0ED0E0AF1EE600A29
:10119000B4EEE00AF1EE10FA06D205EB841090ED01
:1011A0000E0AB1EE400A03E005EB841090ED0D0A43
:1011B00005EB841080ED0D0A05EB841090ED0D0A0F
:1011C000BDEC048B70BD00003F4890ED000A3F4825
:1011D00080ED000A3E4890ED000A3E4880ED000A8E
:1011E0003D4890ED000A3948D0ED000AB4EE600A9F
:1011F000F1EE10FA07D09FED390A394880ED000A68
:10120000022038490870344890ED000A2F48D0ED8C
:10121000000AB4EE600AF1EE10FA14D1304890EDF5
:10122000000AF7EE000A30EE200A80ED000A90ED89
:10123000000AF3EE080AB4EEE00AF1EE10FA02DD5D
:10124000032028490870214890ED000A224880EDCB
:10125000000A254890ED000A1E48D0ED000AB4EEC1
:10126000600AF1EE10FA07D09FED1C0A1F4880EDCE
:10127000000A02201B4948701B4890ED000A1548DF
:10128000D0ED000AB4EE600AF1EE10FA14D117485E
:1012900090ED000AF7EE000A30EE200A80ED000A19
:1012A00090ED000AF2EE040AB4EEE00AF1EE10FA54
:1012B00002DD03200B494870064890ED000A0A48F9
:1012C00080ED000A70470000D80300207003002062
:1012D000D0030020680300206C0300200000000001
:1012E0005C030020580300206403002060030020FA
:1012F00000215D4A11706AE09FED5C0A5A49097845
:1013000001EB410202EBC10100EB810181ED000A1A
:101310009FED560A5449097801EB410202EBC101E5
:1013200000EB810181ED050A51494F4A127801EB2A
:10133000820191ED000A4C49097801EB410202EB70
:10134000C10100EB810181ED080A4A49464A127841
:1013500001EB820191ED000A4349097801EB41025A
:1013600002EBC10100EB810181ED090AB7EE000A31
:101370003D49097801EB410202EBC10100EB81011B
:1013800081ED070AB7EE000A3749097801EB4102FF
:1013900002EBC10100EB810181ED0A0A32490978B3
:1013A00001EB410202EBC10100EB810191ED000A6A
:1013B0002D49097801EB410202EBC10100EB8101EB
:1013C00081ED010A28490978491C274A11702649EC
:1013D00009780A2990DB7047F0EE400A90ED070A81
:1013E00090ED001A20EE010A80ED010A90ED080A46
:1013F00090ED071AD0ED051A01EE210A80ED030ADF
:1014000090ED030A90ED091A30EE010A90ED031AEF
:10141000C1EE001AC0ED061A90ED010A90ED061A11
:10142000D0ED011A70EEE11A01EE210A80ED020AF8
:1014300090ED060AB7EE001A31EE400A90ED031A5D
:1014400020EE010A80ED040A90ED040A80ED050A01
:1014500090ED020A80ED000A90ED020A704700B597
:101460000548FFF745FF00BDCC0300200000000049
:10147000740300209C0300204807002000B58BB0B7
:101480000121084601F0D8F80121480601F01DF9B4
:1014900002208DF828004FF4C050099009A9FE4899
:1014A00000F02CFE09220B21FB4800F0B2FE0922BD
:1014B0000C21F94800F0ADFE14208DF8200000202A
:1014C0008DF8210001208DF822008DF8230008A856
:1014D00000F023FD00208DF81A008DF81B008DF818
:1014E0001C008DF81D008DF81E0001208DF81F00D6
:1014F00008208DF8180003208DF8190000208DF8C1
:1015000016000320ADF8140000208DF8170005A97F
:10151000E24801F03CFD00208DF80E008DF80F0030
:1015200001208DF810000020ADF80C0001208DF88E
:1015300011000020ADF80400ADF80600ADF8080079
:10154000ADF80A0001A801F0ACFD01220221D34848
:1015500002F0A6F80BB000BDF0B585B007460D4609
:1015600000244FF4007000901220019000208DF8AC
:1015700008008DF809008DF80A5000BF05E0395DBC
:101580000DF10B000155601C84B2AC42F7DB6946DB
:10159000C24801F075FE0646002401E0601C84B2DA
:1015A0003146BE4801F004FF18B940F6FF7084428E
:1015B000F4DB40F6FF70844202DB012005B0F0BD91
:1015C0000020FBE7F0B585B007460D46002440F249
:1015D000FF2000901220019000208DF808008DF867
:1015E00009008DF80A5000BF05E0395D0DF10B00D0
:1015F0000155601C84B2AC42F7DB6946A74801F094
:101600003FFE0646002401E0601C84B23146A34838
:1016100001F0CEFE18B940F6FF708442F4DB40F6CC
:10162000FF70844202DB012005B0F0BD0020FBE723
:101630000246A2F2012030B101280BD008280FD0B9
:1016400009281BD113E00020954B18700120954B01
:1016500018701AE00120924B1870924B187014E029
:101660000020914B187002208E4B18700DE0012065
:101670008D4B187002208B4B187006E002208A4BAD
:101680001870874B18700020704700BF854800789D
:10169000012843D148780B7840EA032000B200EEDD
:1016A000100AB8EEC00A7E48007800EBC0007F4BFD
:1016B00003EB800080ED010AC8788B7840EA0320B4
:1016C00000B200EE100AB8EEC00A7548007800EBD0
:1016D000C000764B03EB800080ED000A48790B795F
:1016E00040EA032000B200EE100AB8EEC00A6C48CF
:1016F000007800EBC0006D4B03EB800080ED050A25
:10170000887900EE100AB8EE400A6548007800EBD0
:10171000C00003EB800080ED060A46E061480078D7
:10172000022842D148780B7840EA032000B200EE4C
:10173000100AB8EEC00A5C48007800EBC0005C4BB1
:1017400003EB800080ED010AC8788B7840EA032023
:1017500000B200EE100AB8EEC00A5348007800EB61
:10176000C000534B03EB800080ED000A48790B79F1
:1017700040EA032000B200EE100AB8EEC00A4A4860
:10178000007800EBC0004A4B03EB800080ED050AB7
:10179000887900EE100AB8EE400A4348007800EB62
:1017A000C00003EB800080ED060A01206CE700B565
:1017B00085B00221394801F0DBFFB8B13D4890ED1A
:1017C000000AF7EE000A30EE200A80ED000A02213E
:1017D000324802F068F86A460021304801F045FEC0
:1017E000009988B20DF10B01FFF722FF05B000BD93
:1017F00000EBC0012D4A02EB8101D1ED011A00EB93
:10180000C00102EB810191ED032A71EEC21A00EBD7
:10181000C00102EB8101C1ED041A00EBC00102EB33
:101820008101D1ED041AB1EE402AF4EEC21AF1EEB4
:1018300010FA10D200EBC00102EB8101D1ED071AC2
:10184000B7EE002A71EE821A00EBC00102EB8101B3
:10185000C1ED071A1BE000EBC001144A02EB810145
:10186000D1ED041AF4EEC01AF1EE10FA0FDD00EB20
:10187000C00102EB8101D1ED071AB7EE002A71EE2B
:10188000C21A00EBC00102EB8101C1ED071A00EBA7
:10189000C001064A10E00000000002400064004061
:1018A000D4030020D6030020D50300200009002027
:1018B0006C090020D003002002EB8101D1ED011A58
:1018C00070EEE11A00EBC00102EB810191ED072AF5
:1018D000F1EE412A42EE821A00EBC00102EB8101D7
:1018E000C1ED081A00EBC00102EB8101D1ED011A34
:1018F00000EBC00102EB8101C1ED031A704700004B
:1019000000B58BB00121022000F096FE01214806AF
:1019100000F0DBFE0121880600F0D7FE09220C2131
:101920004A4800F076FC09220D21484800F071FC7D
:101930004FF44050029002208DF80C0002A9434859
:1019400000F0DCFB40208DF8040001208DF805003C
:1019500000208DF8060001208DF8070001A800F096
:10196000DCFA3F208DF8040001208DF805008DF889
:1019700006008DF8070001A800F0CFFA344801F006
:10198000EDFA08A801F00EFC00208DF826008DF875
:1019900027008DF828008DF829008DF82A000120F5
:1019A0008DF82B0000208DF822008DF823000820F0
:1019B0008DF8240003208DF82500ADF8200008A93B
:1019C000234801F0E4FA0E208DF81A0000208DF86B
:1019D0001B0001208DF81C000020ADF81000ADF8B0
:1019E0001200ADF81400ADF81600ADF81800012093
:1019F0008DF81D0004A801F054FB012202211448B7
:101A000001F04EFE01221146114801F049FE0BB0D3
:101A100000BD00B585B002210D4801F0A9FE40B11E
:101A200002210B4801F03FFF6A460021084801F0FF
:101A30001CFD05B000BD10B50121054801F098FE60
:101A400018B10121024801F02EFF10BD0004024030
:101A50000068004000B597B00121480500F0ECFD9A
:101A60000121480400F031FE07220321BF4800F0A5
:101A7000D0FB0820149002208DF8540000208DF82F
:101A8000560003208DF8550000208DF8570014A94A
:101A9000B64800F033FBB64800F00EFFB5480190A1
:101AA0000020ADF80800ADF80A004FF48060ADF8F2
:101AB0000C000420ADF80E000020ADF8100001A9C4
:101AC000AB4800F060FF0121A94800F0E4FF0122CB
:101AD0004021A74801F08CF810208DF85800012013
:101AE0008DF859008DF85A008DF85B0016A800F0AB
:101AF00014FAA14801F02AFF4FF0006005909C48BD
:101B0000001D06909D480790002008901220099023
:101B100000200A904FF480600B9000200C900D90F4
:101B20004FF480700E904FF440300F9000201090D2
:101B300011901290139005A98F4801F0A9FF01227E
:101B400010218D4802F06BF801218B4801F0DAFF7B
:101B500017B000BD10B58A4890ED000AF7EE000AF4
:101B600030EE200A80ED000A8649834802F074F8BE
:101B700000287DD08449804802F03DF881497E48A4
:101B800002F094F87D4800787C49497840EA0120C9
:101B9000C0F30A00A0F580607C490880774840784F
:101BA000C0107649897840EA4110C0F30A00A0F5D8
:101BB0008060764948807148807880116F49C97883
:101BC00040EA81006D49097940EA8120C0F30A00AA
:101BD000A0F580606D4988806848007940106749A9
:101BE000497940EAC110C0F30A00A0F58060674956
:101BF000C880624840790011800808725F484079C7
:101C0000C0F3011048725D4880795C49C97940EAA7
:101C1000012000B25D4988815848007A5749497AC5
:101C200040EA012001B25948C1815448807A5349A1
:101C3000C97A40EA012001B2544801824F48017B31
:101C4000524881744D48417B5048C1744B48807B59
:101C50004A49C97B40EA01204C4988824748007CB8
:101C60004649497C40EA0120C0F30A00474900E0A8
:101C70007BE048810846B0F90600012807DC0846E9
:101C8000B0F90600B0F1FF3F01DB0020C8803F48FB
:101C9000B0F90400012808DC3C48B0F90400B0F1B8
:101CA000FF3F02DB0020394988803848B0F9020044
:101CB000012808DC3548B0F90200B0F1FF3F02DB33
:101CC0000020324948803148B0F90000012808DC82
:101CD0002E48B0F90000B0F1FF3F02DB00202B4995
:101CE00008802A48B0F90000B0F5257F29DC274894
:101CF000B0F9000010F5257F23DB2448B0F902007D
:101D0000B0F5257F1DDC2148B0F9020010F5257FD4
:101D100017DB1E48B0F90400B0F5257F11DC1B4825
:101D2000B0F9040010F5257F0BDB1848B0F9060068
:101D3000B0F5257F05DC1548B0F9060010F5257FC4
:101D400009DA00201149C880888048800880042072
:101D50000F49887002E002200D498870FEF792FB5F
:101D600047F2305108440B49086010BD00000240A2
:101D700000440040A086010088600240D80900208D
:101D8000D80300200088002000080020F20900206D
:101D900058030020000000201CB50121042000F0A1
:101DA0004BFC00208DF8070002208DF80500012073
:101DB0008DF804004FF4D840009069460B4800F0BD
:101DC0009DF94FF40061094800F014FA4FF40061E6
:101DD000064800F00FFA4FF40051044800F00AFAE8
:101DE0004FF48041014800F005FA1CBD0008024094
:101DF00010B50121080300F01FFC10BD30B50346EB
:101E000005E013F8010B80EA02043E48025D081E5B
:101E1000A1F10101F5D1104630BD70B505460C4663
:101E200000260DB1022C01D8002070BD611EFF22DA
:101E30002846FFF7E3FF0646601E285CB04201D14A
:101E40000120F2E70020F0E770B505460C460026B9
:101E50000DB1022C00D870BD611EFF222846FFF78D
:101E6000CDFF0646601E2E5400BFF4E730B5034692
:101E700013B94FF6FF7030BD09E013F8014B82EA49
:101E80000400C0B2204D35F8100080EA2222081E5E
:101E9000A1F10101F1D11046EDE770B505460C4600
:101EA00000260DB1022C01D8002070BDA11E1748DC
:101EB00002882846FFF7DAFF0646F1B2A01E285C2A
:101EC000814206D1601E285CB0EB162F01D10120A3
:101ED000EBE70020E9E770B505460C4600260DB19A
:101EE000022C00D870BDA11E084802882846FFF7C2
:101EF000BDFF0646A01E2E54310A601E295400BFA5
:101F0000F0E700008794000888950008DC030020B3
:101F100032490143324A1160704770B500210023F5
:101F20000F22C4781CB32E4C246804F4E064C4F57A
:101F3000E064C4F30721C1F10404E3B20A41447828
:101F40009C40E1B28478144021430C07210E254CBB
:101F500005786155047804F01F050124AC4005782C
:101F60006D11AD0005F1E025C5F8004109E00478E8
:101F700004F01F050124AC401B4D0678761145F88E
:101F8000264070BD194A0A400243154B1B1F1A60B8
:101F9000704739B1124A121D12680243104B1B1DC3
:101FA0001A6006E00E4A121D126882430C4B1B1D7C
:101FB0001A607047042808D14FF0E021096941F008
:101FC00004014FF0E022116107E04FF0E0210969C0
:101FD00021F004014FF0E022116170470000FA0582
:101FE0000CED00E000E400E080E100E080FFFF1F76
:101FF00010B504469848844208D10121084600F0F3
:1020000086FB0021012000F082FB76E093488442A9
:1020100008D10121022000F07AFB0021022000F00B
:1020200076FB6AE08E48844208D10121042000F04A
:102030006EFB0021042000F06AFB5EE089488442C8
:1020400008D10121082000F062FB0021082000F0E7
:102050005EFB52E08448844208D10121102000F048
:1020600056FB0021102000F052FB46E07F488442DE
:1020700008D10121202000F04AFB0021202000F09F
:1020800046FB3AE07A48844208D10121402000F022
:102090003EFB0021402000F03AFB2EE075488442D0
:1020A00008D10121802000F032FB0021802000F0C7
:1020B0002EFB22E07048844208D10121801500F0F7
:1020C00026FB0021A01500F022FB16E06B4884429D
:1020D00008D10121401500F01AFB0021601500F025
:1020E00016FB0AE06648844207D10121001500F082
:1020F0000EFB0021201500F00AFB10BDF0B50A46CA
:1021000000210023002400BF3DE0012505FA01F372
:10211000156805EA03049C4234D105684F00032684
:10212000BE40B543056015794E00B540066835439D
:1021300005601579012D02D01579022D16D185681B
:102140004F000326BE40B543856055794E00B5402B
:10215000866835438560456801268E40B5434560F5
:10216000456896798E40B6B235434560C5684F00E4
:102170000326BE40B543C560D5794E00B540C6685C
:102180003543C560491C1029BFD3F0BD4FF6FF7120
:1021900001600021017141718171C171704708B501
:1021A0004FF480320092009A0A430092009AC26172
:1021B000C161009AC261C2690092C269009208BD01
:1021C0000246002013690B400BB1012000E0002003
:1021D00070470146086980B2704702460020536983
:1021E0000B400BB1012000E0002070470146486918
:1021F00080B2704701837047418370470AB1018301
:1022000000E0418370474161704742694A40426142
:102210007047F0B5002300244D07ED0E02FA05F3D8
:10222000CE1000F1200555F826504E07F70E0F2668
:10223000BE40B543CF1000F1200646F82750CE101F
:1022400000F1200555F8265045EA0304CE1000F1B0
:10225000200545F82640F0BD000002400004024081
:1022600000080240000C024000100240001402402E
:1022700000180240001C02400020024000240240DE
:1022800000280240F948006840F00100F749086062
:102290000020F64908310860F4480068F449084015
:1022A000F2490860F348091D0860F348EF4984319A
:1022B0000860F0481038091D0860EC48006820F4F8
:1022C0008020EA4908600020E8490C310860E749AD
:1022D0008C31086070470021E44A921C117011464D
:1022E0000870704710B501460022002300204A11F3
:1022F000012A02D1DD4C236808E0022A03D1DB4C1D
:102300007034236802E0D94C7434236801F01F0252
:10231000012494401C400CB1012000E0002010BDBD
:1023200038B5002000900024002500BF3120FFF7C1
:10233000D9FF05460098401C00900098B0F5A04FCA
:1023400001D0002DF2D03120FFF7CCFF08B10124DD
:1023500000E00024204638BD01460020C34A106832
:1023600020F0F80040EAC10010607047C3490860DF
:1023700070470021BD4A703211701170012802D0DF
:1023800004280AD104E00121B84A7032117005E036
:102390000521B64A7032117000E000BF00BF7047DF
:1023A000B7490860704770B5049C41EA8215012660
:1023B000C6EB530645EA0645054345EA0465AB4EC0
:1023C000361D356070BDAD4908667047820142EA2E
:1023D0000172A64B84331A607047A849886670471B
:1023E00010B5830143EA016343EA02739F4C8834CA
:1023F000236010BDA14908677047A049C8647047B1
:1024000002460020994B0833186820F0EC6042EA3D
:1024100001031843954B08331860704702460020AB
:10242000924B0833186820F0784042EA01031843C1
:102430008E4B083318607047014600208B4A0832E3
:10244000106820F003000843106070478748083088
:10245000006800F00C00704701460020834A0832F3
:10246000106820F0F000084310607047014600201B
:102470007E4A0832106820F4E0500843106070472C
:1024800001460020794A0832106820F4604040EA92
:10249000C10010607047F0B5002100220024022521
:1024A00000260223714F08373F6807F00C0121B165
:1024B000042905D0082937D105E0724F076036E0BE
:1024C000714F076033E0694F3F1D3F68C7F3805687
:1024D000664F3F1D3F6807F03F036EB16A4FB7FB81
:1024E000F3F7DFF888C10CF1040CDCF800C0CCF382
:1024F000881C07FB0CF40CE0624FB7FBF3F7DFF826
:102500006CC10CF1040CDCF800C0CCF3881C07FB98
:102510000CF4564F3F1D3F68C7F301477F1C7D00F9
:10252000B4FBF5F7076002E0564F076000BF00BF3D
:102530004E4F08373F6807F0F0010909534F7A5CA6
:102540000768D7404760494F08373F6807F4E051B4
:10255000890A4E4F7A5C4768D7408760434F0837F7
:102560003F6807F46041490B484F7A5C4768D740A1
:10257000C760F0BD002100F44072B2F5407F0AD17F
:102580003A4A0832116821F4F811414A02401143D5
:10259000364A08321160354A70321268C0F30B03B4
:1025A0001A43324B70331A6070473549443908601A
:1025B00070473349403908607047364908607047B2
:1025C00001460020294A8C32106820F01F004A1E64
:1025D0001043264A8C321060704701460020234A7F
:1025E0008C32106820F4F8504A1E40EA02201F4A3C
:1025F0008C3210607047014600201C4A8C321068F3
:1026000020F4401008431060704701460020174A2C
:102610008C32106820F44000084310607047014677
:102620000020124A8C32106820F4403008431060B9
:10263000704719490860704739B10C4A3032126846
:1026400002430A4B30331A6006E0084A30321268FF
:102650008243064B30331A607047F9B1034A343273
:1026600012680243014B34331A601CE00038024008
:10267000FFFFF6EA1030002400300020000047423F
:10268000800E47420024F40040787D01DE030020E4
:10269000FFFCFF0F5C014742E0114742854A126888
:1026A0008243844B1A60704739B1824A121D126806
:1026B0000243804B1B1D1A6006E07E4A121D126801
:1026C00082437C4B1B1D1A60704739B1794A0C322A
:1026D00012680243774B0C331A6006E0754A0C32DD
:1026E00012688243734B0C331A60704739B1714AD8
:1026F0001032126802436F4B10331A6006E06D4AC5
:102700001032126882436B4B10331A60704739B134
:10271000684A243A12680243664B243B1A6006E07A
:10272000644A243A12688243624B243B1A60704721
:1027300039B1604A203A126802435E4B203B1A606E
:1027400006E05C4A203A126882435A4B203B1A60EA
:10275000704739B1574A1C3A12680243554B1C3B2B
:102760001A6006E0534A1C3A12688243514B1C3BE4
:102770001A60704739B14F4A143A126802434D4B00
:10278000143B1A6006E04B4A143A12688243494BE4
:10279000143B1A60704739B1464A103A1268024336
:1027A000444B103B1A6006E0424A103A12688243DA
:1027B000404B103B1A60704739B13E4A1C321268D8
:1027C00002433C4B1C331A6006E03A4A1C32126842
:1027D0008243384B1C331A60704739B1354A203276
:1027E00012680243334B20331A6006E0314A20322C
:1027F000126882432F4B20331A60704739B12D4A3B
:102800002432126802432B4B24331A6006E0294A13
:10281000243212688243274B24331A60704739B13F
:10282000244A2C3212680243224B2C331A6006E0F1
:10283000204A2C32126882431E4B2C331A60704798
:1028400039B11C4A3032126802431A4B30331A60D5
:1028500006E0184A303212688243164B30331A6051
:10286000704739B1134A273A12780243114B273B7C
:102870001A7006E00F4A273A127882430D4B273B25
:102880001A7070470B484030006840F0807009496A
:1028900040310860704701460020064A283A126815
:1028A0000A400AB1012000E00020704701492639A2
:1028B000087070473438024010B50446FA48844224
:1028C00008D101211020FFF766FF00211020FFF73B
:1028D00062FF57E0F548844209D101214804FFF71F
:1028E00049FF00214FF40030FFF744FF4AE0F04871
:1028F000844209D101218804FFF73CFF00214FF4F5
:102900008020FFF737FF3DE0EA48844209D10121EA
:10291000C804FFF72FFF00214FF40020FFF72AFF24
:1029200030E0E548844209D101210805FFF722FF84
:1029300000214FF48010FFF71DFF23E0DF488442A1
:1029400008D101212020FFF726FF00212020FFF7DA
:1029500022FF17E0DA48844209D101218807FFF7F6
:1029600009FF00214FF08040FFF704FF0AE0D5483F
:10297000844207D101214005FFF7FCFE00216005DC
:10298000FFF7F8FE10BD2DE9FF4705460E4600246F
:10299000A14600BFA046B08900B100BF2C8A24F434
:1029A0004054F08804432C82AC8941F20C6084438B
:1029B000B08831890843718908430443AC81AC8AEB
:1029C00024F44074B0890443AC826846FFF763FD89
:1029D000B548854202D0B948854202D1DDF80C9055
:1029E00001E0DDF80890A88900F4004040B109EB4F
:1029F000C90000EB091031684900B0FBF1F707E0AE
:102A000009EBC90000EB091031688900B0FBF1F750
:102A10006420B7FBF0F004012009642101FB107869
:102A2000A88900F4004040B1322000EBC800B0FBA0
:102A3000F1F000F00700044308E0322000EB08103A
:102A40006421B0FBF1F000F00F0004432C81BDE8DD
:102A5000FF874FF41651016000218180C180018100
:102A60000C21418100218181704710B50246002070
:102A7000108A20F470600B884C8823438C88234391
:102A8000CC8823431843108210BD0021018041806F
:102A90008180C180704721B1828942F400528281D5
:102AA00004E082894DF6FF731A4082817047028BE1
:102AB00002F47F420283028B0A430283704721B1F2
:102AC000828942F40042828103E08289C2F30E02CD
:102AD0008281704721B1828A42F40062828204E0DE
:102AE000828A4FF2FF731A4082827047C1F3080254
:102AF0008280704701468888C0F308007047028AC8
:102B00004FF6F0731A400282028A0A43028270472B
:102B100021B1828942F00202828104E082894FF66B
:102B2000FD731A408281704782894FF2FF731A4009
:102B3000828182890A4382817047028A4FF6DF735D
:102B40001A400282028A0A430282704721B1028A35
:102B500042F48042028204E0028A4BF6FF731A407C
:102B600002827047818941F001018181704721B162
:102B7000828A42F00802828204E0828A4FF6F7736A
:102B80001A4082827047028BD2B20283028B42EAE1
:102B900001220283704721B1828A42F020028282A0
:102BA00004E0828A4FF6DF731A408282704721B1B7
:102BB000828A42F01002828204E0828A4FF6EF732A
:102BC0001A4082827047828A4FF6FB731A408282D3
:102BD000828A0A438282704721B1828A42F00202CD
:102BE000828204E0828A4FF6FD731A408282704727
:102BF0001AB1838A0B43838202E0838A8B438382E8
:102C00007047F0B50346002400260025002040F65A
:102C10006A17B94200D100BF1846C1F3421401F04F
:102C20001F06012707FA06F5012C01D10C3004E03C
:102C3000022C01D1103000E014301AB107682F4384
:102C4000076002E00768AF430760F0BD024600205E
:102C5000B1F5007F00D100BF13880B400BB10120FC
:102C600000E00020704701F40072B2F5007F00D14F
:102C700000BFCA430280704770B50246002400239B
:102C80000025002040F66A16B14200D100BFC1F312
:102C9000421501F01F03012606FA03F3012D13D19B
:102CA0009689334017E000000010014000440040C6
:102CB00000480040004C004000500040001401401B
:102CC00000780040007C0040022D02D1168A33407B
:102CD00001E0968A33400C12012606FA04F41688A5
:102CE000344013B10CB1012000E0002070BD10B5DC
:102CF0000022002340F66A14A14200D100BF0A124C
:102D000001249440A3B2DC43048010BD09488047ED
:102D100009480047FEE7FEE7FEE7FEE7FEE7FEE7BD
:102D2000FEE7FEE7FEE7FEE704480549054A064BD5
:102D300070470000292E000889010008680B002058
:102D400068110020680D0020680D00200CB50020DF
:102D5000019000907648006840F480307449086023
:102D600000BF7348006800F4003000900198401CD8
:102D70000190009818B90198B0F5A04FF1D16C48B6
:102D8000006800F4003010B10120009001E0002044
:102D900000900098012846D165484030006840F016
:102DA00080506349403108606248006840F4404008
:102DB000604908605E48083000685D490831086075
:102DC0000846006840F4004008600846006840F487
:102DD000A05008605848091F0860081F006840F0AC
:102DE0008070091F086000BF5148006800F0007043
:102DF0000028F9D040F20560504908604C4808307E
:102E0000006820F003004A4908310860084600685D
:102E100040F00200086000BF45480830006800F03C
:102E20000C000828F8D10CBD10B54548006840F4E6
:102E30007000434908603E48006840F001003C498A
:102E4000086000203A4908310860394800683D4967
:102E50000840374908603C48091D0860081F0068A1
:102E600020F48020091F0860002031490C310860DF
:102E7000FFF76CFF4FF0006031498039086010BDEA
:102E800070B500200022022300240221284D0835BD
:102E90002D6805F00C0020B1042806D0082834D194
:102EA00007E02A4D2A4E356033E02A4D284E356022
:102EB0002FE01F4D2D1D2D68C5F380541C4D2D1D79
:102EC0002D6805F03F0154B1224DB5FBF1F5184EC8
:102ED000361D3668C6F3881605FB06F209E01B4D61
:102EE000B5FBF1F5124E361D3668C6F3881605FBA4
:102EF00006F20F4D2D1D2D68C5F301456D1C6B00AD
:102F0000B2FBF3F5124E356003E0104D104E356004
:102F100000BF00BF064D08352D68C5F303150E4EE2
:102F2000705D0B4D2D68C540094E356070BD0000C9
:102F3000003802400070004019544007003C024035
:102F400088ED00E0FFFFF6FE103000240024F400BE
:102F5000F003002040787D01F403002010B5044602
:102F6000FE48844209D101214806FFF703FC0021F5
:102F70004FF00070FFF7FEFB08E001218806FFF725
:102F8000F9FB00214FF08060FFF7F4FB10BD30B576
:102F9000024600200023146824F002041460146820
:102FA00044F00104146000E05B1C546804F0010468
:102FB0001CB94FF6FF74A342F6D1546804F0010423
:102FC0000CB900206CE08C79012C04D1146844F019
:102FD0008004146003E0146824F080041460CC7949
:102FE000012C04D1146844F04004146003E0146818
:102FF00024F0400414600C7A012C04D1146844F0CD
:103000002004146003E0146824F0200414604C7A57
:10301000012C04D1146844F01004146003E0146817
:1030200024F0100414608C7A012C04D1146844F04C
:103030000804146003E0146824F008041460CC7AD7
:10304000012C04D1146844F00404146003E01468F3
:1030500024F0040414608C78A407CD7844EA056455
:103060000D7944EA05444D7944EA05540D886D1EF6
:103070002C43D461146824F001041460002300E0A0
:103080005B1C546804F001041CB14FF6FF74A342AA
:10309000F6D1546804F001040CB1002000E00120D6
:1030A00030BD10B50021837A012202FA03F1AC4A47
:1030B000126842F00102AA4B1A60A94A1C32126837
:1030C0008A43A74B1C331A60027BCAB9A44A0C324C
:1030D00012688A43A24B0C331A604288C38842EAC2
:1030E00003439F4A4032847A42F83430028883880E
:1030F00042EA03439A4A4032847A02EBC4025360A4
:10310000027B012A19D1964A0C3212680A43944B69
:103110000C331A604288038842EA0343904A4032E3
:10312000847A42F83430C288838842EA03438C4A66
:103130004032847A02EBC4025360C27A3AB9884AB8
:10314000121D12688A43864B1B1D1A6006E0844AD2
:10315000121D12680A43824B1B1D1A60028932B984
:103160007F4A143212688A437D4B14331A600289F5
:10317000012A06D17A4A143212680A43784B143372
:103180001A60427B012A06D1754A1C3212680A4332
:10319000734B1C331A60724A126822F00102704BA2
:1031A0001A6010BD00218171C1710172417281727A
:1031B000C1728170C170032101710221417101212D
:1031C000018070476649096841F00101644A116055
:1031D0001146096843F60E729143614A1160114627
:1031E000096841EA002111601146096821F00101D6
:1031F0001160704721B1026842F48032026003E03E
:10320000026822F4803202607047E1B1026842F045
:10321000800202604FF4C272125842F480734FF47D
:10322000C27213504FF4CA72125842F480734FF4B2
:10323000CA7213504FF4D272125842F480734FF492
:10324000D27213501BE0026822F0800202604FF439
:10325000C272125822F480734FF4C27213504FF4AA
:10326000CA72125822F480734FF4CA7213504FF48A
:10327000D272125822F480734FF4D27213507047F6
:1032800010B502460020936803F08063B3F1806FAD
:1032900000D110E0936803F00063B3F1006F01D137
:1032A000012008E0936803F08053B3F1805F01D1FF
:1032B000022000E00420042879D002F5C07303EB5B
:1032C00000131B6803F0010402F5C07303EB001345
:1032D0001C600B7A7BB94B7A0C8843EA445302F5A5
:1032E000C07404EB00142468234302F5C07404EB9B
:1032F0000014236010E00B7A4C6843EAC4034C7A54
:10330000234302F5C07404EB00142468234302F540
:10331000C07404EB001423608B7A03F00F038B72EC
:1033200002F5C07303EB00135B6823F00F0402F592
:10333000C07303EB00135C6002F5C07303EB001372
:103340005B688C7A234302F5C07404EB001463605D
:103350008B7B1C064B7B44EA034403E00064004083
:10336000006600400B7B44EA0323CC7A234302F53A
:10337000C07404EB0014A3608B7C1C064B7C44EAF5
:1033800003440B7C44EA0323CC7B234302F5C07443
:1033900004EB0014E36002F5C07303EB00131B6839
:1033A00043F0010402F5C07303EB00131C6010BD71
:1033B00010B50246002321B1012907D002290FD1FF
:1033C00009E09068F94C00EA04030BE09068F84CBF
:1033D00000EA040306E09068F64C00EA040301E00A
:1033E000002300BF00BFF44C181BA34216D007DC1B
:1033F00083B16FF08060184470B1022818D111E0D9
:10340000B0F5007F10D0ED4C204448B1B0F5003F3E
:103410000ED10BE002230DE000230BE0002309E0B6
:10342000002307E0012305E0012303E0012301E07D
:10343000002300BF00BFD8B210BD21B1012907D0C1
:1034400002290FD109E0826842F0800282600AE01E
:10345000826842F40042826005E0826842F4000221
:10346000826000E000BF00BF704710B500F5D87360
:1034700003EB01131B6803F004031372137A53B9AF
:1034800000F5D87303EB01131B6840F2FF7404EAE4
:103490005353136009E000F5D87303EB01131B6865
:1034A0006FF0604404EAD303536000F5D87303EB74
:1034B00001131B6803F00203537200F5D87303EB8A
:1034C00001135B6803F00F03937200F5D87303EBED
:1034D00001135B681B0AD37400F5D87303EB011367
:1034E0009B68D37200F5D87303EB01139B681C0A29
:1034F000147300F5D87303EB01139B681C0C547311
:1035000000F5D87303EB01139B681B0E937300F552
:10351000D87303EB0113DB68D37300F5D87303EBA7
:103520000113DB681C0A147400F5D87303EB011354
:10353000DB681C0C547400F5D87303EB0113DB68D3
:103540001B0E937421B9C36843F02003C36003E0EA
:10355000036943F02003036110BD21B9C26842F042
:103560002002C26003E0026942F02002026170475B
:103570000246002019B9D36803F0030006E00129D0
:1035800003D1136903F0030000E00020704710B579
:1035900002460B4600204FF6FF71BBB9146824F0B9
:1035A000020444F00104146000E0491E546804F071
:1035B0000304012C01D00029F7D1546804F003045E
:1035C000012C01D0002032E0012030E0012B13D18A
:1035D000146824F00304146000E0491E546804F0E9
:1035E00003040CB10029F8D1546804F003040CB1B1
:1035F00000201CE001201AE0022B17D1146824F0EF
:10360000010444F00204146000E0491E546804F010
:103610000304022C01D00029F7D1546804F00304FC
:10362000022C01D0002002E0012000E0002010BDAB
:10363000014600200A6822F0010242F002020A60FC
:103640004A6802F00302022A00D1012070470146B5
:103650004FF6FF7200200B6823F002030B6000E0BE
:10366000521E4B6803F00203022B01D1002AF7D14E
:103670004B6803F00203022B00D001207047014683
:1036800000208A6902F070007047014600208A69B4
:10369000100E7047014600208A69C2F30740704748
:1036A0001AB143690B43436102E043698B434361B1
:1036B000704710B50246002001F4700343B19369CE
:1036C000C1F3130423400BB101202DE000202BE0B7
:1036D00001F0807343B15368C1F3130423400BB16D
:1036E000012021E000201FE001F0006343B1936856
:1036F000C1F3130423400BB1012015E0002013E0B7
:1037000001F0007343B1D368C1F3130423400BB13C
:10371000012009E0002007E01369C1F313042340EE
:103720000BB1012000E0002010BD0022244B994283
:1037300002D10023836111E0C1F3130201F0007391
:103740000BB1C2600AE001F080630BB1026105E0D9
:1037500001F000630BB1826000E0426070470246F6
:10376000002002EA01030BB1012000E000207047B5
:1037700070B504460D46002660692840002872D0C6
:10378000B5F5807F69D01DDC082D42D006DC012D07
:103790002DD0022D31D0042D7FD134E0102D3ED01C
:1037A000202D42D0402D78D145E0000003000004D8
:1037B0000003000800000310000100080001FFF7EB
:1037C0007000F030B5F5004F61D009DCB5F5007F31
:1037D0004AD0B5F5806F4DD0B5F5006F5DD150E0A2
:1037E000B5F5803F2DD0B5F5003F56D12FE0A0684C
:1037F0005549FFF7B4FF064651E0E0680321FFF7A3
:10380000AEFF06464BE0E0680821FFF7A8FF06463A
:1038100045E0E0681021FFF7A2FF06463FE020697F
:103820000321FFF79CFF064639E020690821FFF7D6
:1038300096FF064633E020691021FFF790FF064609
:103840002DE060680821FFF78AFF064627E06068E0
:103850001021FFF784FF064621E0A0690121FFF750
:103860007EFF06461BE01BE0A0690221FFF777FF01
:10387000064614E0A0690421FFF771FF06460EE03A
:103880000BE0A0697021FFF76AFF064607E0606859
:103890000421FFF764FF064601E0002600BF00E0B8
:1038A0000026304670BDB1F5007F3AD00FDC2029EC
:1038B00028D006DC01291CD004291DD0082940D1BC
:1038C0001DE0402921D0B1F5807F3AD126E0B1F545
:1038D000004F31D006DCB1F5806F25D0B1F5006F17
:1038E0002FD124E0B1F5803F12D0B1F5003F28D1AF
:1038F00011E0154A826025E00822C26022E0102211
:10390000C2601FE0082202611CE01022026119E07F
:103910000822426016E01022426013E00422426056
:1039200010E0042242600DE0042242600AE000221E
:1039300082610422426005E000228261042242602A
:1039400000E000BF00BF704701010100016821F0E5
:10395000010101600021016041608160C16001617D
:1039600021214161DB49884204D13D21D94A103AE5
:1039700091608CE0D7491831884205D14FF47461C9
:10398000D44A103A916082E0D2493031884205D160
:103990004FF47411CF4A103A916078E0CD49483124
:1039A000884205D14FF07461CA4A103A91606EE0C6
:1039B000C8496031884204D1C749C64A103AD1602B
:1039C00065E0C4497831884204D1C449C14A103AFB
:1039D000D1605CE0BF499031884204D1C049BD4A02
:1039E000103AD16053E0BB49A831884205D14FF06D
:1039F0003D51B84A103AD16049E0BA49884204D1F1
:103A00003D21B84A083A116041E0B6491831884270
:103A100005D14FF47461B34A083A116037E0B149F7
:103A20003031884205D14FF47411AE4A083A116022
:103A30002DE0AC494831884205D14FF07461A94A64
:103A4000083A116023E0A7496031884204D1A249B5
:103A5000A44A121F11601AE0A2497831884204D1A9
:103A60009E49A04A121F116011E09E499031884280
:103A700004D19B499B4A121F116008E09949A83163
:103A8000884204D14FF03D51964A121F1160704791
:103A900010B500220268944B1A40CC680B6823438F
:103AA0004C6923438C692343CC6923430C6A234329
:103AB0004C6A23438C6A23434C6B23438C6B234314
:103AC0001A430260426922F00702D1E90B34234312
:103AD0001A4342610B6943604B6883608B68C36023
:103AE00010BD0021016041608160C16001614161E0
:103AF0008161C161016241628162C16201634163AE
:103B00008163704721B1026842F00102026003E064
:103B1000026822F001020260704721B1026842F49B
:103B20000042026003E0026822F400420260704733
:103B300021B1026842F02002026003E0026822F034
:103B4000200202607047416070470146486880B2B9
:103B5000704722B1036843F40023036003E0036865
:103B600023F4002303600161704721B1026842F42D
:103B70008022026003E0026822F480220260704723
:103B80000AB1016100E0C1607047014600200A6887
:103B900002F400220AB1012000E000207047014633
:103BA00000200A6802F001020AB1012000E00020B2
:103BB0007047014600204A6902F03800704730B56E
:103BC00003460A4600200024464DAB4202D241493A
:103BD000103901E04349103902F000550DB14C682D
:103BE00000E00C68414D2C4004EA02050DB10120B3
:103BF00000E0002030BD02463A4B9A4202D23548DE
:103C0000103801E03748103801F000531BB1374B32
:103C10000B40C36002E0354B0B408360704710B52A
:103C200001F080034BB122B1436943F0800343614B
:103C300003E0436923F08003436180290BD02AB15C
:103C4000036801F01E042343036004E0036801F0ED
:103C50001E04A343036010BD70B50246002000247B
:103C60000025204EB24202D21A4B103B01E01D4B00
:103C7000103B1F4E0E4036B11E2606EAD1241668B0
:103C800006EA040502E0566906F0800501F00056D8
:103C90000EB15C6800E01C68144E344004EA010672
:103CA00016B10DB1012000E0002070BD02460D4BA1
:103CB0009A4202D20748103801E00A48103801F051
:103CC00000531BB1094B0B40C36002E0074B0B4094
:103CD00083607047106002403D000020400F0020CC
:103CE00000003D20106402403F801CF07D0F7D0FDE
:103CF0003C0F3C0F014600BF0020704700BF054A43
:103D0000128802F04002002AF9D0C2B2014B9A8018
:103D100070477047005000401CB501210220FEF79B
:103D20008BFCC020009001208DF8040000208DF84D
:103D3000060003208DF8050000208DF80700694675
:103D40008848FEF7DBF90120874908608749C1F8F8
:103D50009C021CBD10B58348006820F44040814996
:103D600008600846006840F48040086001207E49F1
:103D7000091D08607D49C1F898020420FCF79FFBEB
:103D800000207949091D08600420FCF798FB0020F9
:103D90007649C1F8980210BD10B57248006820F449
:103DA0004040704908600846006840F48040086060
:103DB00000206D4908606D49C1F89C020420FCF7A1
:103DC0007EFB0120684908606849C1F89C02042014
:103DD000FCF775FB10BD10B500246248006820F4A4
:103DE00040406049086008460068086001205E495C
:103DF000091D0860FCF763FB01205C49C1F89802CB
:103E0000FCF75DFB07E0601CC4B2FA2C03DDFFF792
:103E1000C3FF012010BD54487C3800680028F2D14F
:103E20005149086000BFF5E710B500204E49086011
:103E30004C48006820F440404A4908600846006841
:103E400040F48040086000204849C1F89C020220EC
:103E5000FCF735FB0120444908600220FCF72FFBEA
:103E600000204249C1F8980210BD10B500203E491B
:103E700008603C48006820F440403A490860084621
:103E8000006840F48040086001203849C1F89C0275
:103E90000220FCF714FB0120334908600220FCF7E4
:103EA0000EFB00203149C1F8980210BD70B50446E0
:103EB0002C48006820F440402A4908600846006801
:103EC00040F480400860002027490860002517E082
:103ED000E0092549091D08606006040E0220FCF770
:103EE000EEFA01202149C1F898020220FCF7E7FA16
:103EF00000201D4908600220FCF7E1FA681CC5B2E9
:103F0000082DE5DB70BD70B5054600241548006836
:103F100020F4404013490860084600680860002605
:103F200016E00020104908600220FCF7C8FA0120C2
:103F30000E49C1F898026006040E0B487C380068F0
:103F400008B1601CC4B20120FCF7B9FA701CC6B2FB
:103F5000082EE6DB15B9FFF788FF01E0FFF764FFE5
:103F6000204670BD000402409882404200804042DA
:103F700070B505460C46FFF7EDFED020FFF796FF23
:103F8000FFF729FF18B1FFF707FF012070BD284692
:103F9000FFF78CFFFFF71FFF2046FFF787FFFFF7B4
:103FA0001AFF18B1FFF7F8FE0120EFE7FFF7F4FE64
:103FB0000020EBE770B504460025BC2C01DB012591
:103FC00010E0622C01DB02250CE02A2C01DB03252A
:103FD00008E0142C01DB042504E00A2C01DB052594
:103FE00000E0062529461A20FFF7C2FF70BD70B514
:103FF0000446B4F57A7F01DD4FF47A74042C00DABC
:1040000004244FF47A7090FBF4F0401EC5B22946A8
:104010001920FFF7ADFF0546264604EBD671C1F324
:104020004F00FFF7C7FF70BD70B50446FFF792FE63
:10403000D020FFF73BFFFFF7CEFE2046FFF736FF0D
:10404000FFF7C9FEFFF786FED120FFF72FFFFFF72E
:10405000C2FE0020FFF757FF0546FFF79DFE2846EA
:1040600070BD10B50446E006010E1C20FFF780FF6E
:1040700010BD10B50446E006010E1B20FFF778FFC7
:1040800010BD10B5FFF748FE80216B20FFF770FFD1
:104090006420FCF720FA00216B20FFF769FF032062
:1040A000FFF7E7FF0020FFF7DCFF3220FFF79FFF5D
:1040B00000213820FFF75CFF00216A20FFF758FF3E
:1040C00000212320FFF754FF80213720FFF750FF06
:1040D0007520FFF7A9FF0446682C0BD101216B2046
:1040E000FFF746FF00216C20FFF742FF3220FFF769
:1040F0007EFF01E0012010BD0020FCE72DE9F0412A
:1041000006460F4614461D46FFF724FE002141EAED
:104110004601C8B2FFF7CAFEFFF75DFE20B1FFF708
:104120003BFE0120BDE8F0813846FFF7BFFEFFF7F8
:1041300052FEFFF70FFE012101EB4601C8B2FFF767
:10414000B5FEFFF748FE0DE0012C04D10020FFF77B
:10415000DAFE287003E00120FFF7D5FE2870601E0C
:10416000C4B26D1C002CEFD1FFF716FE0020D9E77A
:1041700010B52DED088B82B001AB022241216820E1
:10418000FFF7BCFF9DF805009DF8041040EA0120F0
:1041900004B2204604F024FE41EC1B0B9FED500BB3
:1041A00053EC102B04F0C4FC41EC1A0B9FED4E0BAA
:1041B00053EC102B04F014FC41EC190B04F0DEFB63
:1041C00008EE100A9FED4A0A28EE000ABDEEC00A6A
:1041D00010EE100A00B202B0BDEC088B10BD2DE944
:1041E000FC4104460D4616466B46062243216820D4
:1041F000FFF784FF0746BFB99DF801009DF8001046
:1042000040EA012000B220809DF803009DF80210D2
:1042100040EA012000B228809DF805009DF80410B6
:1042200040EA012000B230803846BDE8FC812DE92B
:10423000FC4104460D4616466B4606223B2168208B
:10424000FFF75CFF0746BFB99DF801009DF800101D
:1042500040EA012000B220809DF803009DF8021082
:1042600040EA012000B228809DF805009DF8041066
:1042700040EA012000B230803846BDE8FC812DE9DB
:10428000F04105460E4617469846FFF763FD0021AC
:1042900041EA4501C8B2FFF709FEFFF79CFD20B1D6
:1042A000FFF77AFD0120BDE8F0813046FFF7FEFD03
:1042B000FFF791FD00240CE018F80400FFF7F6FD6D
:1042C000FFF789FD18B1FFF767FD0120EBE7601CE0
:1042D000C4B2BC42F0DBFFF75FFD0020E3E7000063
:1042E0000000000000407540A4703D0AD7434240E2
:1042F0000000C84238B50446F74890F82400C0B121
:1043000014B10220009001E000200090F24A1268EF
:10431000D17BF14A526810786B460122FFF7AFFF5C
:1043200010B14FF0FF3038BD9DF80010EA484174DD
:1043300023E0E948807A10B94FF0FF30F3E724B169
:10434000E548407C08B10020EDE714B10120009061
:1043500001E000200090E04A1268D17BDE4A5268FA
:1043600010786B460122FFF78AFF10B14FF0FF3043
:10437000D9E79DF80010D84841740020D3E738B53C
:1043800000241FE0D4480068C07AA04204D0D2487C
:104390000068407DA04200D112E0CF49496808780A
:1043A0006B4601222146FFF7A9FE10B14FF0FF3006
:1043B00038BD9DF800202146C8A003F0ABFA00BF2D
:1043C000601CC4B2C44840680079A042DADC002016
:1043D000EEE770B504460D46BF480068C07AA042BB
:1043E00004D0BD480068407DA04202D14FF0FF30AC
:1043F00070BDB94840680079A04202DC4FF0FF3040
:10440000F6E7B549496808782B4601222146FFF7AF
:1044100075FEEDE738B50446AF4890F82300A0429A
:1044200001D1002038BD14B13020009001E00020FF
:104430000090A948807C20B19DF8000040F0020067
:104440000090A54890F8220020B19DF8000040F0AF
:1044500080000090A04A1268117D9F4A526810782F
:104460006B460122FFF70BFF10B14FF0FF30D9E789
:10447000994880F823400020D4E738B5044604F07A
:10448000700010B10120009005E014B100200090F0
:1044900001E040200090904A1268917C8E4A526858
:1044A00010786B460122FFF7EAFE20B100218A480E
:1044B0008172481E38BD9DF8000020F040018648FA
:1044C00001730020009004F0400020B99DF8000026
:1044D00040F00400009004F0200020B99DF8000096
:1044E00040F00200009004F0100020B99DF8000098
:1044F00040F00100009004F0080020B99DF8000091
:1045000040F038000090744A1268D17C724A5268B8
:1045100010786B460122FFF7B2FE20B100216E48F1
:104520008172481EC6E724B1082C02D00020FFF794
:1045300071FF69488472002101753220FBF7CBFFBF
:104540000020B7E738B504466348807CA04201D11B
:10455000002038BD002C46D05F4A126811795E4AAF
:10456000526810786B460122FFF7C8FD10B14FF07A
:10457000FF30EEE79DF8000020F020000090564A42
:1045800012681179544A526810786B460122FFF77D
:1045900076FE10B14FF0FF30DBE70320FBF79BFF07
:1045A000022000904C4890F8220020B19DF80000B5
:1045B00040F080000090484890F8230020B19DF81A
:1045C000000040F030000090434A1268117D424ADA
:1045D000526810786B460122FFF751FE002851D037
:1045E0004FF0FF30B5E73C4A126811793A4A5268F9
:1045F00010786B460122FFF781FD10B14FF0FF30BC
:10460000A7E73548807A00F0010028B19DF8000046
:1046100040F02000009004E09DF8000020F0200011
:1046200000902D4A126811792B4A526810786B4617
:104630000122FFF724FE10B14FF0FF3089E703207D
:10464000FBF749FF244890F8220010B18020009029
:1046500001E000200090204890F8230020B19DF850
:10466000000040F0300000901B4A1268117D1A4A89
:10467000526810786B460122FFF701FE10B14FF02F
:10468000FF3066E714488474002062E708B51248DA
:10469000807A10B94FF0FF3008BD002000900E4A1C
:1046A0001268D17B0C4A526810786B460122FFF7E2
:1046B000E6FD10B14FF0FF30EEE7074A126851797E
:1046C000054A526810786B460122FFF7D8FD68B1A1
:1046D0004FF0FF30E0E70000080400202523357884
:1046E0003A20252335780D0A00000000F84A1268A8
:1046F0001179F74A526810786B460122FFF7BFFD27
:1047000010B14FF0FF30C7E7F14890F824000028BF
:1047100053D00C200090EE4A12681179EC4A52688E
:1047200010786B460122FFF7AAFD10B14FF0FF3061
:10473000B2E73220FBF7CFFEC0200090E448807A39
:1047400000F0010020B19DF8000040F02000009032
:10475000DF4A12681179DE4A526810786B460122EE
:10476000FFF78DFD10B14FF0FF3095E7D848407C42
:1047700010B10220009001E000200090D44A12689D
:10478000D17BD34A526810786B460122FFF777FD40
:1047900010B14FF0FF307FE700200090CC4A126844
:1047A0005179CB4A526810786B460122FFF767FDBA
:1047B000002855D04FF0FF306EE704200090C44A27
:1047C00012681179C24A526810786B460122FFF7CD
:1047D00056FD10B14FF0FF305EE7BD48807C20B938
:1047E000BB48807A00F0010010B94020009001E041
:1047F00060200090B64A12681179B54A5268107864
:104800006B460122FFF73BFD10B14FF0FF3043E74D
:104810003220FBF760FEAE48407C10B101200090D2
:1048200001E000200090AA4A1268D17BA84A526891
:1048300010786B460122FFF722FD10B14FF0FF30D8
:104840002AE7A34A12685179A14A52681078A04B0E
:1048500010330122FFF713FD10B14FF0FF301BE7BB
:10486000002019E770B50446002624F0010498489A
:1048700090F8240008B1002070BD9548807A10B9E6
:104880004FF0FF30F8E79248057C807A204090494D
:1048900008740846007CA04202D04FF0FF3600E0CA
:1048A000002614B98A48007D18B10120FFF722FDC7
:1048B00002E00020FFF71EFD3CB1FFF7E7FE20B14C
:1048C000834805744FF0FF30D6E73046D4E738B55B
:1048D00004467F48807A10B94FF0FF3038BDBC2CB9
:1048E00002DB0120009015E0622C02DB0220009028
:1048F00010E02A2C02DB032000900BE0142C02DBDA
:104900000420009006E00A2C02DB0520009001E064
:10491000062000906E48C07A9DF80010884201D1B0
:104920000020DBE76A4A12689178694A5268107879
:104930006B460122FFF7A3FC10B14FF0FF30CDE72B
:104940009DF800106248C1720020C7E738B50446E0
:10495000282C02DD4FF0FF3038BDDCB90020FFF716
:1049600059FD00208DF8000007208DF80100584AFD
:104970001268917C564A526810786B460222FFF703
:104980007EFC10B14FF0FF30E6E700215048017582
:104990000020E1E70120FFF73DFD20208DF8000019
:1049A000012C06D100208DF801000520FFF78FFFB4
:1049B00017E0052C06DC01208DF801000520FFF72B
:1049C00086FF0EE0142C06DC02208DF801000A2080
:1049D000FFF77DFF05E003208DF801001420FFF7AD
:1049E00076FF9DF80100072101EB8010C0B28DF821
:1049F0000100374A1268917C354A526810786B463C
:104A00000222FFF73CFC10B14FF0FF30A4E7082171
:104A10002F48817200210173012101750020FFF7E9
:104A200021FF002098E738B504462948807A10B95C
:104A30004FF0FF3038BD264890F8240010B14FF0F9
:104A4000FF30F7E72248007D50B134B1282C04DC58
:104A5000E0B2FFF77BFF0020ECE70020FFF776FFD6
:104A6000042C01DA042404E0B4F57A7F01DD4FF46C
:104A70007A744FF47A7090FBF4F0401EC0B200904C
:104A8000134A12685178124A526810786B46012214
:104A9000FFF7F5FB10B14FF0FF30CBE79DF80000BA
:104AA000401C4FF47A7191FBF0F081B20848C1814B
:104AB0000146C9894810FFF70AFF0020BAE738B558
:104AC00004460348807A28B94FF0FF3038BD000013
:104AD00008040020022C06D0042C07D0082C08D093
:104AE000102C0CD108E0002000900BE00820009072
:104AF00008E01020009005E01820009002E04FF040
:104B0000FF30E3E700BFF748407A9DF80010B0EBB4
:104B1000E10F01D10020D9E7F24A1268D179F14AB8
:104B2000526810786B460122FFF7A9FB10B14FF0D5
:104B3000FF30CBE79DF80000C110EA484172002029
:104B4000C4E738B50446E748807A10B94FF0FF3023
:104B500038BDFA2C09D0B4F5FA7F09D0B4F57A7FC4
:104B600009D0B4F5FA6F0CD108E0002000900BE0FA
:104B70000820009008E01020009005E01820009028
:104B800002E04FF0FF30E3E700BFD648007A9DF81F
:104B90000010B0EBE10F01D10020D9E7D14A126833
:104BA0009179D04A526810786B460122FFF767FB73
:104BB00010B14FF0FF30CBE79DF80000C010C9499D
:104BC00008720020C4E71CB580208DF80000C54A9B
:104BD0001268917CC34A526810786B460122FFF735
:104BE0004EFB10B14FF0FF301CBD6420FBF773FC8F
:104BF00000208DF80000BB4A1268917CB94A5268C7
:104C000010786B460122FFF73AFB10B14FF0FF30EE
:104C1000EAE7B44A1268917DB24A526810786B464E
:104C20000622FFF76BFA10B14FF0FF30DCE79DF87A
:104C30000500C007400F9DF8031001F0010140EA94
:104C400041009DF8011001F0010140EA010494B116
:104C5000012C03D10121A348C17431E0022C03D1FE
:104C60000021A048C1742BE021469FA002F052FE13
:104C70004FF0FF30B8E79B4A1268D178994A5268E2
:104C800010786B460122FFF739FA10B14FF0FF3070
:104C9000AAE79DF8000000F00F042CB99C4802F030
:104CA00039FE4FF0FF309FE7042C06D199A002F0A7
:104CB00031FE01218B48C17402E000218948C17492
:104CC000FF2188488172FF2086490872FF218548AC
:104CD0004172C1724FF6FF71C181FF21017481746D
:104CE0000121017380F82210002180F82310417502
:104CF00001751630016041608160163880F824101B
:104D000080F82510C1844FF4FA60FFF71AFF10B144
:104D10004FF0FF3068E70220FFF7D1FE10B14FF0EF
:104D2000FF3061E72A20FFF7D2FD10B14FF0FF30CE
:104D30005AE73220FFF777FE10B14FF0FF3053E70C
:104D40000020FFF78FFD10B14FF0FF304CE700203F
:104D5000FFF7F8FB10B14FF0FF3045E70020FFF7F9
:104D60008CFB002040E770477CB504460D465D484B
:104D7000807A00F0700010B94FF0FF307CBD594AC6
:104D80001268117B574A526810786B460622FFF76B
:104D9000B5F910B14FF0FF30F0E79DF801009DF834
:104DA000001040EA012000B220809DF803009DF829
:104DB000021040EA012000B260809DF805009DF8D5
:104DC000041040EA012000B2A08015B12846FFF788
:104DD000CAFF0020D2E77CB504460D464148807AE0
:104DE00000F0080010B94FF0FF307CBD3D4A12685A
:104DF000517B3C4A526810786B460622FFF77EF9D9
:104E000010B14FF0FF30F0E79DF801009DF8001061
:104E100040EA012000B220809DF803009DF80210B6
:104E200040EA012000B260809DF805009DF8041062
:104E300040EA012000B2A08015B12846FFF793FF99
:104E40000020D2E7F8B506460C462648807A10B90D
:104E50004FF0FF30F8BD234A1268917B214A526817
:104E600010786B460222FFF749F910B14FF0FF307E
:104E7000F0E79DF801009DF8001040EA012005B21E
:104E800014B12046FFF76FFF16484068B0F90800DC
:104E900000EE100AF8EEC00A00EE105AB8EEC00A92
:104EA00070EE600A0F484068C08800EE100AB8EE45
:104EB000400A80EE801A9FED1F0A31EE000ADFEDF6
:104EC0001E0A20EE200ABDEEC00A86ED000A002070
:104ED000C0E710B588B004461CB94FF0FF3008B0E9
:104EE00010BD2BE008040020556E737570706F7252
:104EF00074656420736F6674776172652070726F79
:104F000064756374207265762025642E0A000000A3
:104F1000F8A4000848616C662073656E7369746953
:104F200076697479207061727420666F756E642E74
:104F30000A00000000000C4200008047206830B9E1
:104F4000606820B9A06810B9002008B010BDF94908
:104F50004968087806AB03221146FFF7CFF810B175
:104F60004FF0FF30F1E79DF81800082101EB201009
:104F700000F00F00ADF800009DF8190001EB2010C3
:104F800000F00F00ADF802009DF81A0001EB2010B0
:104F900000F00F00ADF8040020684100BDF90000EA
:104FA000403091FBF0F000B2ADF8100060684100B5
:104FB000BDF90200403091FBF0F000B2ADF81200F4
:104FC000A0684100BDF90400403091FBF0F000B250
:104FD000ADF81400D7494968087806AB0622114697
:104FE000FFF78CF810B14FF0FF30AEE79DF81900D5
:104FF0009DF8181040EA012000B2ADF808009DF8B5
:105000001B009DF81A1040EA012000B2ADF80A001A
:105010009DF81D009DF81C1040EA012000B2ADF87B
:105020000C00BDF81000BDF80810084400B2ADF83F
:105030001000BDF81200BDF80A10084400B2ADF827
:105040001200BDF81400BDF80C10084400B2ADF811
:105050001400BDF81000000A8DF81800BDF810000B
:10506000C0B28DF81900BDF81200000A8DF81A00C0
:10507000BDF81200C0B28DF81B00BDF81400000A84
:105080008DF81C00BDF81400C0B28DF81D00A949B0
:105090004968087806AB06221146FFF7F0F810B110
:1050A0004FF0FF3051E700204FE70146A148007A5A
:1050B00030B1012807D0022809D003280FD10AE017
:1050C000FA2008800EE04FF4FA7008800AE04FF4EE
:1050D0007A70088006E04FF4FA60088002E0002051
:1050E000088000BF00BF0020704701469148407A09
:1050F00030B1012807D0022808D003280CD108E0DD
:10510000022008700BE00420087008E008200870F6
:1051100005E01020087002E04FF0FF30704700BF3C
:105120008448C07C18B108784006000E0870002042
:10513000F4E701467F48C07A082817D2DFE800F07C
:105140001704070A0D101318BC20088013E0622012
:10515000088010E02A2008800DE0142008800AE072
:105160000A20088007E00520088004E000BF00BF97
:105170000020088000BF00BF0020704701466D4836
:1051800090F8240010B14FF0FF3070476948C08993
:1051900008800020F9E7014600200880401E704783
:1051A00001464FF0FF30704701466248007A30B147
:1051B000012809D002280CD0032814D10EE09FED5D
:1051C0005E0A81ED000A11E09FED5C0A81ED000AA4
:1051D0000CE09FED5B0A81ED000A07E09FED590AA4
:1051E00081ED000A02E04FF0FF30704700BF002061
:1051F000FBE701464F48407A30B1012808D0022829
:105200000AD0032810D10BE04FF4804008800EE054
:1052100041F69C7008800AE04FF48050088006E058
:105220004FF40060088002E04FF0FF30704700BF8D
:105230004048C07C10B10888401008800020F5E785
:1052400001463C48007C0870002070470146394800
:10525000807A10B10120087001E000200870002061
:10526000704738B504463348807A10B94FF0FF30A4
:1052700038BD304A1268117C2E4A526810786B464D
:105280000222FEF73BFF10B14FF0FF30F0E79DF830
:1052900001009DF8001040EA012000B220800020AB
:1052A000E6E72DE9FE4F0746884692461D46DDF8A3
:1052B00030B0002600241F4890F8240010B1601E72
:1052C000BDE8FE8F002028701A48807A10B94FF090
:1052D000FF30F5E71748007C10B94FF0FF30EFE7DB
:1052E0001448007C00F0400008B1B01CC6B2114860
:1052F000007C00F0200008B1B01CC6B20D48007C54
:1053000000F0100008B1B01CC6B20A48007C00F0E2
:10531000080008B1B01DC6B2064A1268917A054A63
:10532000526810786B460222FEF7E8FE60B14FF03B
:10533000FF30C5E70804002000000343000083425B
:1053400033330342333383419DF801009DF800104D
:1053500040EA0129B14501DA0020B1E7FA48406886
:105360004088B9EB600F17DDF74A1268517CF64AA6
:10537000526810786B460122FEF7C0FE10B14FF064
:10538000FF309DE79DF8000000F0100020B1FFF70E
:105390007DF96FF0010093E75046FFF7E4FCEA4A1D
:1053A0001268D17AE84A526810786B463246FEF7A6
:1053B000A5FE10B14FF0FF3082E799FBF6F0401EDA
:1053C0008BF8000000202870B4422AD0DE48007C10
:1053D00000F0080028B3601C1DF800001DF8041040
:1053E00040EA012000B2A8F80000E01C1DF80010FF
:1053F000A01C1DF8000041EA002000B2A8F802003D
:10540000601D1DF80010201D1DF8000041EA00205D
:1054100000B2A8F80400287840F008002870A01D09
:1054200084B2B44213D0C848007C00F0400070B190
:10543000601C1DF800001DF8041040EA012000B2B5
:105440003880287840F040002870A01C84B2B44214
:1054500013D0BD48007C00F0200070B1601C1DF826
:1054600000001DF8041040EA012000B2788028787E
:1054700040F020002870A01C84B2B44213D0B2487F
:10548000007C00F0100070B1601C1DF800001DF8D9
:10549000041040EA012000B2B880287840F01000E3
:1054A0002870A01C84B200200AE7F8B504460F4615
:1054B0001646A54890F8240010B94FF0FF30F8BD0B
:1054C000A148807A10B94FF0FF30F8E79E4A126881
:1054D000917A9D4A526810786B460222FEF70EFEC2
:1054E00010B14FF0FF30EAE79DF801009DF8001081
:1054F00040EA0125A54203DA00203070401EDEE7B5
:10550000914840684088B5EB600F17DD8E4A1268FD
:10551000517C8D4A526810786B460122FEF7EEFDF1
:1055200010B14FF0FF30CAE79DF8000000F0100006
:1055300020B1FFF7ABF86FF00100C0E7E2B2824B99
:105540001B68D97A804B5B6818783B46FEF7D6FD1E
:1055500010B14FF0FF30B2E795FBF4F0401E307011
:105560000020ACE70146784880F822100020704700
:105570007CB5054674494968087801AB04220D21C1
:10558000FEF7BCFD08B107207CBD9DF80700C0F305
:1055900001109DF8041001F0E00140EAE1008DF8EF
:1055A00000009DF80700C0F381009DF8051001F090
:1055B000E00140EAE1008DF801009DF8070000F0ED
:1055C00003009DF8061001F0E00140EAE1008DF8CB
:1055D0000200002427E01DF8040030B99FED5B0AAB
:1055E00005EB840080ED000A1BE09FED590A05EBF6
:1055F000840080ED000A0BE005EB840090ED000ACA
:10560000DFED540A20EE200A05EB840080ED000A4D
:105610001DF80400401EC0B20DF804000028EBD1B4
:1056200000BF601CC4B2032CD5DB0020ACE7F0B592
:105630002DED028B83B006460F4600256846FFF726
:1056400097FF002447E056F8241057F82420881AC2
:10565000002801DB014600E0414200EE101AB8EEDE
:10566000C00ADFED3D0A80EE208A684600EB840028
:1056700090ED000AB5EEC00AF1EE10FA18D06846B7
:1056800000EB8400D0ED000A88EE200AF7EE000A55
:1056900070EE608AB0EEE80A3048D0ED090AB4EE48
:1056A000E00AF1EE10FA15DD0120A040054311E0FB
:1056B0002A4890ED070AB4EEC80AF1EE10FA06DCAB
:1056C00090ED080AB4EEC80AF1EE10FA02D20120F9
:1056D000A0400543641C032CB5DB284603B0BDEC99
:1056E000028BF0BDF0B52DED048B81B006460F4660
:1056F00000251549496808786B4603220D21FEF7FD
:10570000FDFC20B1072001B0BDEC048BF0BD9DF87D
:10571000000000F01F008DF800009DF8010000F06F
:105720001F008DF801009DF8020000F01F008DF8A9
:105730000200002461E056F8241057F82420881A4B
:1057400000280DDB01460CE00804002000000000EA
:105750007B14AE3E1D5A843F00008047B09700087E
:10576000414200EE101AB8EEC00A5FED050A80EE65
:10577000208A1DF8040068B3FE4890ED000AB8EED8
:10578000400ADFEDFD0A80EE801AF0EE418A05E066
:105790009FEDFA0A28EE800AF0EE408A1DF8040018
:1057A000401EC0B20DF804000028F1D188EE280A8E
:1057B000F7EE000A30EE609AB0EEC90AED48D0ED7F
:1057C000060AB4EEE00AF1EE10FA15DD0120A04061
:1057D000054311E0E74890ED040AB4EEC80AF1EE83
:1057E00010FA06DC90ED050AB4EEC80AF1EE10FAE4
:1057F00002D20120A0400543641C032C9BDB2846F9
:1058000081E72DE9F04F87B005460C46914601200F
:105810008DF8100000208DF81100D94A1268917C93
:10582000D74A5268107804AB0222FEF728FD20B157
:105830004FF0FF3007B0BDE8F08FC820FAF74BFEFD
:1058400000208DF81000CE4A1268D17BCC4A5268F5
:10585000107804AB0122FEF712FD10B14FF0FF30BB
:10586000E8E7C74A12685179C54A5268107804AB14
:105870000122FEF704FD10B14FF0FF30DAE7C04A15
:105880001268917CBE4A5268107804AB0122FEF780
:10589000F6FC10B14FF0FF30CCE7B94A1268D17D69
:1058A000B74A5268107804AB0122FEF7E8FC10B149
:1058B0004FF0FF30BEE7B24A12681179B04A526821
:1058C000107804AB0122FEF7DAFC10B14FF0FF3084
:1058D000B0E70C208DF81000A94A12681179A84A87
:1058E0005268107804AB0122FEF7C9FC10B14FF0EA
:1058F000FF309FE70F20FAF7EEFDA148806A407A5B
:105900008DF810009E4A126891789D4A526810786E
:1059100004AB0122FEF7B3FC10B14FF0FF3089E772
:105920009748806A007A8DF81000954A126851787D
:10593000934A5268107804AB0122FEF7A0FC10B124
:105940004FF0FF3076E7B9F1000F07D08C48806A3E
:10595000807A40F0E0008DF8100004E08848806A0A
:10596000807A8DF81000864A12689179844A5268CC
:10597000107804AB0122FEF782FC10B14FF0FF302B
:1059800058E7B9F1000F07D07D48806AC07A40F02F
:10599000E0008DF8100003E07648C07A8DF8100022
:1059A000774A1268D179764A5268107804AB01229E
:1059B000FEF765FC10B14FF0FF303BE7B9F1000F87
:1059C00002D0C820FAF787FD40208DF810006C4AFD
:1059D000126811796A4A5268107804AB0122FEF706
:1059E0004EFC10B14FF0FF3024E778208DF8100006
:1059F000634A12685179624A5268107804AB0122F6
:105A0000FEF73DFC10B14FF0FF3013E7594988898C
:105A1000FAF761FD00208DF81000594A126851799B
:105A2000574A5268107804AB0122FEF728FC10B1E7
:105A30004FF0FF30FEE6524A1268917A504A52689F
:105A4000107804AB0222FEF759FB10B14FF0FF3083
:105A5000F0E69DF811009DF8101040EA012B0C2093
:105A60009BFBF0F0C6B20020A86068602860A060D0
:105A700060602060824665E0414A1268D17A404AFF
:105A80005268107804AB0C22FEF738FB10B14FF0CF
:105A9000FF30CFE69DF811009DF8101040EA01207C
:105AA00000B2ADF808009DF813009DF8121040EA0E
:105AB000012000B2ADF80A009DF815009DF8141001
:105AC00040EA012000B2ADF80C00BDF908102068D2
:105AD00008442060BDF90A10606808446060BDF9A0
